{
  "abi": [
    {
      "inputs": [],
      "stateMutability": "nonpayable",
      "type": "constructor"
    },
    {
      "inputs": [
        {
          "internalType": "address",
          "name": "tokenAddress",
          "type": "address"
        }
      ],
      "name": "liquidate",
      "outputs": [],
      "stateMutability": "nonpayable",
      "type": "function"
    },
    {
      "inputs": [
        {
          "internalType": "address",
          "name": "",
          "type": "address"
        }
      ],
      "name": "nonces",
      "outputs": [
        {
          "internalType": "uint256",
          "name": "",
          "type": "uint256"
        }
      ],
      "stateMutability": "view",
      "type": "function"
    },
    {
      "inputs": [],
      "name": "status",
      "outputs": [
        {
          "internalType": "uint256",
          "name": "",
          "type": "uint256"
        }
      ],
      "stateMutability": "view",
      "type": "function"
    },
    {
      "inputs": [
        {
          "components": [
            {
              "internalType": "address",
              "name": "router",
              "type": "address"
            },
            {
              "internalType": "uint256",
              "name": "amountIn",
              "type": "uint256"
            },
            {
              "internalType": "uint256",
              "name": "amountOut",
              "type": "uint256"
            },
            {
              "internalType": "string",
              "name": "tradeType",
              "type": "string"
            },
            {
              "internalType": "address",
              "name": "recipient",
              "type": "address"
            },
            {
              "internalType": "address[]",
              "name": "path",
              "type": "address[]"
            },
            {
              "internalType": "uint256",
              "name": "deadline",
              "type": "uint256"
            },
            {
              "internalType": "uint256",
              "name": "sqrtPriceLimitX96",
              "type": "uint256"
            },
            {
              "internalType": "uint256",
              "name": "fee",
              "type": "uint256"
            },
            {
              "internalType": "uint256",
              "name": "nonce",
              "type": "uint256"
            }
          ],
          "internalType": "struct SwapOrder",
          "name": "order",
          "type": "tuple"
        },
        {
          "internalType": "uint8",
          "name": "v",
          "type": "uint8"
        },
        {
          "internalType": "bytes32",
          "name": "r",
          "type": "bytes32"
        },
        {
          "internalType": "bytes32",
          "name": "s",
          "type": "bytes32"
        }
      ],
      "name": "verifyAndSend",
      "outputs": [],
      "stateMutability": "nonpayable",
      "type": "function"
    },
    {
      "stateMutability": "payable",
      "type": "receive"
    }
  ],
  "bytecode": {
    "object": "0x6080604052348015620000575762461bcd60e51b6000908152602060045260226024527f45746865722073656e7420746f206e6f6e2d70617961626c652066756e63746960449081526137b760f11b60645290608490fd5b50600180546001600160a01b03191633178155600080556040805160c081018252600a60808201908152690536f6e4f6641537761760b41b60a0830152815281518083018352928352603160f81b602084810191909152810192909252620000d591908101620000c6620000de565b815230602090910152620000e2565b600355620001e3565b4690565b600060405180608001604052806052815260200162001a99605291396040516020016200011091906200017b565b60405160208183030381529060405280519060200120826000015180519060200120836020015180519060200120846040015185606001516040516020016200015e959493929190620001b7565b604051602081830303815290604052805190602001209050919050565b60008251815b818110156200019d576020818601810151858301520162000181565b81811115620001ac5782828501525b509190910192915050565b9485526020850193909352604084019190915260608301526001600160a01b0316608082015260a00190565b6118a680620001f36000396000f3fe6080604052600436106100435760003560e01c8063200d2ed21461009c5780632f865568146100fb578063522e83ad146101515780637ecebe00146101a55761004a565b3661004a57005b62461bcd60e51b6000908152602060045260296024527f556e6b6e6f776e207369676e617475726520616e64206e6f2066616c6c6261636044908152681ac81919599a5b995960ba1b60645290608490fd5b3480156100dc5762461bcd60e51b60009081526020600452602260245260008051602061181183398151915260449081526137b760f11b60645290608490fd5b506100e56101f9565b6040516100f29190611695565b60405180910390f35b34801561013b5762461bcd60e51b60009081526020600452602260245260008051602061181183398151915260449081526137b760f11b60645290608490fd5b5061014f61014a3660046111eb565b6101ff565b005b3480156101915762461bcd60e51b60009081526020600452602260245260008051602061181183398151915260449081526137b760f11b60645290608490fd5b5061014f6101a036600461128a565b61038e565b3480156101e55762461bcd60e51b60009081526020600452602260245260008051602061181183398151915260449081526137b760f11b60645290608490fd5b506100e56101f43660046111eb565b610431565b60005481565b6001546001600160a01b0316331461021657600080fd5b6040516370a0823160e01b815281906000906001600160a01b038316906370a082319061024790309060040161152c565b60206040518083038186803b1580156102965762461bcd60e51b60009081526020600452602560245260008051602061183183398151915260449081526420636f646560d81b60645290608490fd5b505afa1580156102aa573d6000803e3d6000fd5b505050506040513d601f19601f820116820180604052508101906102ce9190611355565b60405163a9059cbb60e01b81529091506001600160a01b0383169063a9059cbb906102ff9033908590600401611540565b602060405180830381600087803b1580156103505762461bcd60e51b60009081526020600452602560245260008051602061183183398151915260449081526420636f646560d81b60645290608490fd5b505af1158015610364573d6000803e3d6000fd5b505050506040513d601f19601f82011682018060405250810190610388919061123b565b50505050565b61039a84848484610443565b6103bf5760405162461bcd60e51b81526004016103b690611622565b60405180910390fd5b60808401516001600160a01b03166000908152600260205260409020546101208501511415610419576103f1846104ec565b60808401516001600160a01b0316600090815260026020526040902080546001019055610388565b60405162461bcd60e51b81526004016103b69061164d565b60026020526000908152604090205481565b60008060035461045287610c64565b604051602001610463929190611511565b6040516020818303038152906040528051906020012090506000600182878787604051600081526020016040526040516104a094939291906115e0565b6020604051602081039080840390855afa1580156104c2573d6000803e3d6000fd5b5050604051601f19015160808901516001600160a01b039182169116149350505050949350505050565b805160a0820151805160009190829061050157fe5b60200260200101519050806001600160a01b03166323b872dd84608001513086602001516040518463ffffffff1660e01b815260040161054393929190611559565b602060405180830381600087803b1580156105945762461bcd60e51b60009081526020600452602560245260008051602061183183398151915260449081526420636f646560d81b60645290608490fd5b505af11580156105a8573d6000803e3d6000fd5b505050506040513d601f19601f820116820180604052508101906105cc919061123b565b508251602084015160405163095ea7b360e01b81526001600160a01b0384169263095ea7b3926105fe92600401611540565b602060405180830381600087803b15801561064f5762461bcd60e51b60009081526020600452602560245260008051602061183183398151915260449081526420636f646560d81b60645290608490fd5b505af1158015610663573d6000803e3d6000fd5b505050506040513d601f19601f82011682018060405250810190610687919061123b565b506106c183606001516040518060400160405280601381526020017276335f6578616374496e70757453696e676c6560681b815250610d3e565b156108295760006040518060e001604052808560a001516000815181106106e457fe5b60200260200101516001600160a01b031681526020018560a0015160018151811061070b57fe5b60200260200101516001600160a01b0316815260200185610100015162ffffff16815260200185608001516001600160a01b0316815260200185602001518152602001856040015181526020018560e001516001600160a01b03168152509050826001600160a01b03166304e45aaf6000836040518363ffffffff1660e01b81526004016107999190611687565b6020604051808303818588803b1580156107e95762461bcd60e51b60009081526020600452602560245260008051602061183183398151915260449081526420636f646560d81b60645290608490fd5b505af11580156107fd573d6000803e3d6000fd5b50505050506040513d601f19601f820116820180604052508101906108229190611355565b5050610c5f565b61086383606001516040518060400160405280601481526020017376335f65786163744f757470757453696e676c6560601b815250610d3e565b1561093b5760006040518060e001604052808560a0015160008151811061088657fe5b60200260200101516001600160a01b031681526020018560a001516001815181106108ad57fe5b60200260200101516001600160a01b0316815260200185610100015162ffffff16815260200185608001516001600160a01b0316815260200185604001518152602001856020015181526020018560e001516001600160a01b03168152509050826001600160a01b0316635023b4df6000836040518363ffffffff1660e01b81526004016107999190611687565b61096e83606001516040518060400160405280600d81526020016c1d8cd7d95e1858dd125b9c1d5d609a1b815250610d3e565b156109ed57600060405180608001604052806109938660a00151876101000151610d98565b815260200185608001516001600160a01b031681526020018560200151815260200185604001518152509050826001600160a01b031663b858183f6000836040518363ffffffff1660e01b81526004016107999190611674565b610a2183606001516040518060400160405280600e81526020016d1d8cd7d95e1858dd13dd5d1c1d5d60921b815250610d3e565b15610aa05760006040518060800160405280610a468660a00151876101000151610d98565b815260200185608001516001600160a01b031681526020018560400151815260200185602001518152509050826001600160a01b03166309b813466000836040518363ffffffff1660e01b81526004016107999190611674565b610ae383606001516040518060400160405280601b81526020017f76325f737761704578616374546f6b656e73466f72546f6b656e730000000000815250610d3e565b15610bbb57816001600160a01b031663472b43f36000856020015186604001518760a0015188608001516040518663ffffffff1660e01b8152600401610b2c949392919061169e565b6020604051808303818588803b158015610b7c5762461bcd60e51b60009081526020600452602560245260008051602061183183398151915260449081526420636f646560d81b60645290608490fd5b505af1158015610b90573d6000803e3d6000fd5b50505050506040513d601f19601f82011682018060405250810190610bb59190611355565b50610c5f565b610bfe83606001516040518060400160405280601b81526020017f76325f73776170546f6b656e73466f724578616374546f6b656e730000000000815250610d3e565b15610c4757816001600160a01b03166342712a676000856040015186602001518760a0015188608001516040518663ffffffff1660e01b8152600401610b2c949392919061169e565b60405162461bcd60e51b81526004016103b6906115fe565b505050565b60006040518060e0016040528060b0815260200161176160b09139604051602001610c8f91906114f5565b6040516020818303038152906040528051906020012082600001518360200151846040015185606001518051906020012086608001518760a00151604051602001610cda919061144d565b604051602081830303815290604052805190602001208860c001518960e001518a61010001518b6101200151604051602001610d209b9a9998979695949392919061157d565b6040516020818303038152906040528051906020012090505b919050565b600081604051602001610d5191906114f5565b6040516020818303038152906040528051906020012083604051602001610d7891906114f5565b604051602081830303815290604052805190602001201490505b92915050565b60608060005b8451811015610e175781858281518110610db457fe5b6020026020010151604051602001610dcd92919061148c565b60405160208183030381529060405291506001855103811015610e0f578184604051602001610dfd9291906114c3565b60405160208183030381529060405291505b600101610d9e565b509392505050565b80356001600160a01b0381168114610d3957600080fd5b600082601f830112610e905762461bcd60e51b81526020600452602b6024527f414249206465636f64696e673a20696e76616c69642063616c6c6461746120616044526a1c9c985e481bd9999cd95d60aa1b606452608481fd5b8135602067ffffffffffffffff821115610ea657fe5b808202610eb4828201611710565b838152828101908684018388018501891015610f185762461bcd60e51b87526004859052602b6024527f414249206465636f64696e673a20696e76616c69642063616c6c6461746120616044526a727261792073747269646560a81b606452608487fd5b8693505b85841015610f4157610f2d81610e1f565b835260019390930192918401918401610f1c565b50979650505050505050565b600082601f830112610fa75762461bcd60e51b81526020600452602b6024527f414249206465636f64696e673a20696e76616c69642063616c6c6461746120616044526a1c9c985e481bd9999cd95d60aa1b606452608481fd5b8135602067ffffffffffffffff821115610fbd57fe5b610fcf601f8301601f19168201611710565b82815285828487010111156110285762461bcd60e51b8452600482905260276024527f414249206465636f64696e673a20696e76616c6964206279746520617272617960445266040d8cadccee8d60cb1b606452608484fd5b8282860183830137918201019190915292915050565b60006101408083850312156110935762461bcd60e51b8252602060045260236024527f414249206465636f64696e673a20737472756374206461746120746f6f207368604452621bdc9d60ea1b606452608482fd5b61109c81611710565b9150506110a882610e1f565b81526020820135602082015260408201356040820152606082013567ffffffffffffffff8082111561111c5762461bcd60e51b600052602060045260236024527f414249206465636f64696e673a20696e76616c696420737472756374206f6666604452621cd95d60ea1b60645260846000fd5b61112885838601610f4d565b606084015261113960808501610e1f565b608084015260a08401359150808211156111955762461bcd60e51b600052602060045260236024527f414249206465636f64696e673a20696e76616c696420737472756374206f6666604452621cd95d60ea1b60645260846000fd5b506111a284828501610e36565b60a08301525060c082013560c082015260e082013560e082015261010080830135818301525061012080830135818301525092915050565b803560ff81168114610d3957600080fd5b60006020828403121561122b5762461bcd60e51b815260206004526022602452600080516020611851833981519152604452611c9d60f21b606452608481fd5b61123482610e1f565b9392505050565b60006020828403121561127b5762461bcd60e51b815260206004526022602452600080516020611851833981519152604452611c9d60f21b606452608481fd5b81518015158114611234578182fd5b600080600080608085870312156112ce5762461bcd60e51b835260206004526022602452600080516020611851833981519152604452611c9d60f21b606452608483fd5b843567ffffffffffffffff8111156113255762461bcd60e51b8452602060045260226024527f414249206465636f64696e673a20696e76616c6964207475706c65206f66667360445261195d60f21b606452608484fd5b6113318782880161103e565b945050611340602086016111da565b93969395505050506040820135916060013590565b6000602082840312156113955762461bcd60e51b815260206004526022602452600080516020611851833981519152604452611c9d60f21b606452608481fd5b5051919050565b600081516080845280518060808601526113bd8160a0870160208501611734565b6020848101516001600160a01b03169086015260408085015190860152606093840151938501939093525050601f01601f19160160a00190565b80516001600160a01b03908116835260208083015182169084015260408083015162ffffff16908401526060808301518216908401526080808301519084015260a0828101519084015260c09182015116910152565b815160009082906020808601845b838110156114805781516001600160a01b03168552938201939082019060010161145b565b50929695505050505050565b6000835161149e818460208801611734565b60609390931b6bffffffffffffffffffffffff19169190920190815260140192915050565b600083516114d5818460208801611734565b60e89390931b6001600160e81b0319169190920190815260030192915050565b60008251611507818460208701611734565b9190910192915050565b61190160f01b81526002810192909252602282015260420190565b6001600160a01b0391909116815260200190565b6001600160a01b03929092168252602082015260400190565b6001600160a01b039384168152919092166020820152604081019190915260600190565b9a8b526001600160a01b03998a1660208c015260408b019890985260608a019690965260808901949094529190951660a087015260c086019490945260e08501939093526101008401929092526101208301919091526101408201526101600190565b93845260ff9290921660208401526040830152606082015260800190565b6020808252600a90820152694d4554484f445f444e4560b01b604082015260600190565b602080825260119082015270494e56414c49445f5349474e415455524560781b604082015260600190565b6020808252600d908201526c494e56414c49445f4e4f4e434560981b604082015260600190565b600060208252611234602083018461139c565b60e08101610d9282846113f7565b90815260200190565b600060808201868352602086818501526080604085015281865180845260a0860191508288019350845b818110156116ed5784516001600160a01b0316835293830193918301916001016116c8565b50506001600160a01b039590951660609490940193909352509195945050505050565b60405181810167ffffffffffffffff8111828210171561172c57fe5b604052919050565b60005b8381101561174f578181015183820152602001611737565b83811115610388575050600091015256fe537761704f72646572286164647265737320726f757465722c75696e7432353620616d6f756e74496e2c75696e7432353620616d6f756e744f75742c737472696e67207472616465547970652c6164647265737320726563697069656e742c616464726573735b5d20706174682c75696e7420646561646c696e652c75696e74323536207371727450726963654c696d69745839362c75696e74323536206665652c75696e74323536206e6f6e63652945746865722073656e7420746f206e6f6e2d70617961626c652066756e63746954617267657420636f6e747261637420646f6573206e6f7420636f6e7461696e414249206465636f64696e673a207475706c65206461746120746f6f2073686fa264697066735822122042508f972a6c0d3b237ddea47e7827086ac731d4741cf5e2a4112c9d6b38fc8664736f6c63430007060033454950373132446f6d61696e28737472696e67206e616d652c737472696e672076657273696f6e2c75696e7432353620636861696e49642c6164647265737320766572696679696e67436f6e747261637429",
    "linkReferences": {}
  }
}