{"address":"0xc6282cdBb7040F339FA76D370c93833874dAe5Fc","bytecode":"0x608060405234801561001057600080fd5b50600180546001600160a01b03191633178155600080556040805160c081018252600a60808201908152690536f6e4f6641537761760b41b60a0830152815281518083018352928352603160f81b60208481019190915281019290925261008a9190810161007c610092565b815230602090910152610096565b600255610190565b4690565b60006040518060800160405280605281526020016200125f605291396040516020016100c2919061012b565b604051602081830303815290604052805190602001208260000151805190602001208360200151805190602001208460400151856060015160405160200161010e959493929190610164565b604051602081830303815290604052805190602001209050919050565b60008251815b8181101561014b5760208186018101518583015201610131565b818111156101595782828501525b509190910192915050565b9485526020850193909352604084019190915260608301526001600160a01b0316608082015260a00190565b6110bf80620001a06000396000f3fe6080604052600436106100385760003560e01c8063200d2ed2146100445780638c3c4c621461006f578063e84486a2146100865761003f565b3661003f57005b600080fd5b34801561005057600080fd5b506100596100a6565b6040516100669190610f18565b60405180910390f35b34801561007b57600080fd5b506100846100ac565b005b34801561009257600080fd5b506100846100a1366004610b42565b6100c9565b60005481565b6001546001600160a01b031633146100c357600080fd5b60008055565b6100d584848484610112565b6100fa5760405162461bcd60e51b81526004016100f190610ea8565b60405180910390fd5b610103846101bb565b50506000805460010190555050565b60008060025461012187610857565b604051602001610132929190610dda565b60405160208183030381529060405280519060200120905060006001828787876040516000815260200160405260405161016f9493929190610e8a565b6020604051602081039080840390855afa158015610191573d6000803e3d6000fd5b5050604051601f19015160808901516001600160a01b039182169116149350505050949350505050565b805160a082015180516000919082906101d057fe5b60200260200101519050806001600160a01b03166323b872dd84608001513086602001516040518463ffffffff1660e01b815260040161021293929190610df5565b602060405180830381600087803b15801561022c57600080fd5b505af1158015610240573d6000803e3d6000fd5b505050506040513d601f19601f820116820180604052508101906102649190610b1b565b508251602084015160405163095ea7b360e01b81526001600160a01b0384169263095ea7b39261029692600401610e19565b602060405180830381600087803b1580156102b057600080fd5b505af11580156102c4573d6000803e3d6000fd5b505050506040513d601f19601f820116820180604052508101906102e89190610b1b565b5061032283606001516040518060400160405280601381526020017276335f6578616374496e70757453696e676c6560681b81525061092a565b156104535760006040518060e001604052808560a0015160008151811061034557fe5b60200260200101516001600160a01b031681526020018560a0015160018151811061036c57fe5b60200260200101516001600160a01b0316815260200185610100015162ffffff16815260200185608001516001600160a01b0316815260200185602001518152602001856040015181526020018560e001516001600160a01b03168152509050826001600160a01b03166304e45aaf6000836040518363ffffffff1660e01b81526004016103fa9190610f0a565b6020604051808303818588803b15801561041357600080fd5b505af1158015610427573d6000803e3d6000fd5b50505050506040513d601f19601f8201168201806040525081019061044c9190610c4d565b5050610852565b61048d83606001516040518060400160405280601481526020017376335f65786163744f757470757453696e676c6560601b81525061092a565b156105655760006040518060e001604052808560a001516000815181106104b057fe5b60200260200101516001600160a01b031681526020018560a001516001815181106104d757fe5b60200260200101516001600160a01b0316815260200185610100015162ffffff16815260200185608001516001600160a01b0316815260200185604001518152602001856020015181526020018560e001516001600160a01b03168152509050826001600160a01b0316635023b4df6000836040518363ffffffff1660e01b81526004016103fa9190610f0a565b61059883606001516040518060400160405280600d81526020016c1d8cd7d95e1858dd125b9c1d5d609a1b81525061092a565b1561061757600060405180608001604052806105bd8660a00151876101000151610984565b815260200185608001516001600160a01b031681526020018560200151815260200185604001518152509050826001600160a01b031663b858183f6000836040518363ffffffff1660e01b81526004016103fa9190610ef7565b61064b83606001516040518060400160405280600e81526020016d1d8cd7d95e1858dd13dd5d1c1d5d60921b81525061092a565b156106ca57600060405180608001604052806106708660a00151876101000151610984565b815260200185608001516001600160a01b031681526020018560400151815260200185602001518152509050826001600160a01b03166309b813466000836040518363ffffffff1660e01b81526004016103fa9190610ef7565b61070d83606001516040518060400160405280601b81526020017f76325f737761704578616374546f6b656e73466f72546f6b656e73000000000081525061092a565b156107ae57816001600160a01b031663472b43f36000856020015186604001518760a0015188608001516040518663ffffffff1660e01b81526004016107569493929190610f21565b6020604051808303818588803b15801561076f57600080fd5b505af1158015610783573d6000803e3d6000fd5b50505050506040513d601f19601f820116820180604052508101906107a89190610c4d565b50610852565b6107f183606001516040518060400160405280601b81526020017f76325f73776170546f6b656e73466f724578616374546f6b656e73000000000081525061092a565b1561083a57816001600160a01b03166342712a676000856040015186602001518760a0015188608001516040518663ffffffff1660e01b81526004016107569493929190610f21565b60405162461bcd60e51b81526004016100f190610ed3565b505050565b60006040518060e0016040528060a28152602001610fe860a291396040516020016108829190610dbe565b6040516020818303038152906040528051906020012082600001518360200151846040015185606001518051906020012086608001518760a001516040516020016108cd9190610d16565b604051602081830303815290604052805190602001208860c001518960e001518a610100015160405160200161090c9a99989796959493929190610e32565b6040516020818303038152906040528051906020012090505b919050565b60008160405160200161093d9190610dbe565b60405160208183030381529060405280519060200120836040516020016109649190610dbe565b604051602081830303815290604052805190602001201490505b92915050565b60608060005b8451811015610a0357818582815181106109a057fe5b60200260200101516040516020016109b9929190610d55565b604051602081830303815290604052915060018551038110156109fb5781846040516020016109e9929190610d8c565b60405160208183030381529060405291505b60010161098a565b509392505050565b80356001600160a01b038116811461092557600080fd5b600082601f830112610a32578081fd5b8135602067ffffffffffffffff821115610a4857fe5b808202610a56828201610f93565b838152828101908684018388018501891015610a70578687fd5b8693505b85841015610a9957610a8581610a0b565b835260019390930192918401918401610a74565b50979650505050505050565b600082601f830112610ab5578081fd5b813567ffffffffffffffff811115610ac957fe5b610adc601f8201601f1916602001610f93565b818152846020838601011115610af0578283fd5b816020850160208301379081016020019190915292915050565b803560ff8116811461092557600080fd5b600060208284031215610b2c578081fd5b81518015158114610b3b578182fd5b9392505050565b60008060008060808587031215610b57578283fd5b843567ffffffffffffffff80821115610b6e578485fd5b818701915061012080838a031215610b84578586fd5b610b8d81610f93565b9050610b9883610a0b565b81526020830135602082015260408301356040820152606083013582811115610bbf578687fd5b610bcb8a828601610aa5565b606083015250610bdd60808401610a0b565b608082015260a083013582811115610bf3578687fd5b610bff8a828601610a22565b60a08301525060c083013560c082015260e083013560e082015261010091508183013582820152809650505050610c3860208601610b0a565b93969395505050506040820135916060013590565b600060208284031215610c5e578081fd5b5051919050565b60008151608084528051806080860152610c868160a0870160208501610fb7565b6020848101516001600160a01b03169086015260408085015190860152606093840151938501939093525050601f01601f19160160a00190565b80516001600160a01b03908116835260208083015182169084015260408083015162ffffff16908401526060808301518216908401526080808301519084015260a0828101519084015260c09182015116910152565b815160009082906020808601845b83811015610d495781516001600160a01b031685529382019390820190600101610d24565b50929695505050505050565b60008351610d67818460208801610fb7565b60609390931b6bffffffffffffffffffffffff19169190920190815260140192915050565b60008351610d9e818460208801610fb7565b60e89390931b6001600160e81b0319169190920190815260030192915050565b60008251610dd0818460208701610fb7565b9190910192915050565b61190160f01b81526002810192909252602282015260420190565b6001600160a01b039384168152919092166020820152604081019190915260600190565b6001600160a01b03929092168252602082015260400190565b998a526001600160a01b0398891660208b015260408a019790975260608901959095526080880193909352941660a086015260c085019390935260e08401929092526101008301919091526101208201526101400190565b93845260ff9290921660208401526040830152606082015260800190565b602080825260119082015270696e76616c6964207369676e617475726560781b604082015260600190565b6020808252600a90820152694d4554484f445f444e4560b01b604082015260600190565b600060208252610b3b6020830184610c65565b60e0810161097e8284610cc0565b90815260200190565b600060808201868352602086818501526080604085015281865180845260a0860191508288019350845b81811015610f705784516001600160a01b031683529383019391830191600101610f4b565b50506001600160a01b039590951660609490940193909352509195945050505050565b60405181810167ffffffffffffffff81118282101715610faf57fe5b604052919050565b60005b83811015610fd2578181015183820152602001610fba565b83811115610fe1576000848401525b5050505056fe537761704f72646572286164647265737320726f757465722c75696e7432353620616d6f756e74496e2c75696e7432353620616d6f756e744f75742c737472696e67207472616465547970652c6164647265737320726563697069656e742c616464726573735b5d20706174682c75696e7420646561646c696e652c75696e74323536207371727450726963654c696d69745839362c75696e743235362066656529a26469706673582212205a2552c1c4c033a6dc305c6e67bbb8cef93600b790663d348e13f5dc0b01727564736f6c63430007060033454950373132446f6d61696e28737472696e67206e616d652c737472696e672076657273696f6e2c75696e7432353620636861696e49642c6164647265737320766572696679696e67436f6e747261637429","abi":[{"inputs":[],"stateMutability":"nonpayable","type":"constructor"},{"inputs":[],"name":"resetStatus","outputs":[],"stateMutability":"nonpayable","type":"function"},{"inputs":[],"name":"status","outputs":[{"internalType":"uint256","name":"","type":"uint256"}],"stateMutability":"view","type":"function"},{"inputs":[{"components":[{"internalType":"address","name":"router","type":"address"},{"internalType":"uint256","name":"amountIn","type":"uint256"},{"internalType":"uint256","name":"amountOut","type":"uint256"},{"internalType":"string","name":"tradeType","type":"string"},{"internalType":"address","name":"recipient","type":"address"},{"internalType":"address[]","name":"path","type":"address[]"},{"internalType":"uint256","name":"deadline","type":"uint256"},{"internalType":"uint256","name":"sqrtPriceLimitX96","type":"uint256"},{"internalType":"uint256","name":"fee","type":"uint256"}],"internalType":"struct SwapOrder","name":"order","type":"tuple"},{"internalType":"uint8","name":"v","type":"uint8"},{"internalType":"bytes32","name":"r","type":"bytes32"},{"internalType":"bytes32","name":"s","type":"bytes32"}],"name":"verifyAndSend","outputs":[],"stateMutability":"nonpayable","type":"function"},{"stateMutability":"payable","type":"receive"}]}