{"address":"0xbfCFe863d5e0c9EdaA61116e6F17416505059758","bytecode":"0x60806040523480156200001157600080fd5b5033600160006101000a81548173ffffffffffffffffffffffffffffffffffffffff021916908373ffffffffffffffffffffffffffffffffffffffff160217905550600080819055506200011a60405180608001604052806040518060400160405280600a81526020017f536f6e4f6641537761700000000000000000000000000000000000000000000081525081526020016040518060400160405280600181526020017f31000000000000000000000000000000000000000000000000000000000000008152508152602001620000ef6200012660201b60201c565b81526020013073ffffffffffffffffffffffffffffffffffffffff168152506200013360201b60201c565b60028190555062000340565b6000804690508091505090565b6000604051806080016040528060528152602001620018966052913960405160200162000161919062000236565b6040516020818303038152906040528051906020012082600001518051906020012083602001518051906020012084604001518560600151604051602001620001af9594939291906200024f565b604051602081830303815290604052805190602001209050919050565b620001d781620002c2565b82525050565b620001e881620002d6565b82525050565b6000620001fb82620002ac565b620002078185620002b7565b9350620002198185602086016200030a565b80840191505092915050565b620002308162000300565b82525050565b6000620002448284620001ee565b915081905092915050565b600060a082019050620002666000830188620001dd565b620002756020830187620001dd565b620002846040830186620001dd565b62000293606083018562000225565b620002a26080830184620001cc565b9695505050505050565b600081519050919050565b600081905092915050565b6000620002cf82620002e0565b9050919050565b6000819050919050565b600073ffffffffffffffffffffffffffffffffffffffff82169050919050565b6000819050919050565b60005b838110156200032a5780820151818401526020810190506200030d565b838111156200033a576000848401525b50505050565b61154680620003506000396000f3fe6080604052600436106100385760003560e01c8063200d2ed2146100445780638c3c4c621461006f578063e84486a2146100865761003f565b3661003f57005b600080fd5b34801561005057600080fd5b506100596100af565b60405161006691906110d9565b60405180910390f35b34801561007b57600080fd5b506100846100b5565b005b34801561009257600080fd5b506100ad60048036038101906100a89190610be3565b610118565b005b60005481565b600160009054906101000a900473ffffffffffffffffffffffffffffffffffffffff1673ffffffffffffffffffffffffffffffffffffffff163373ffffffffffffffffffffffffffffffffffffffff161461010f57600080fd5b60008081905550565b61012484848484610187565b610163576040517f08c379a000000000000000000000000000000000000000000000000000000000815260040161015a9061107d565b60405180910390fd5b61016c84610251565b600160005461017b91906111d0565b60008190555050505050565b60008060025461019687610807565b6040516020016101a7929190610f05565b6040516020818303038152906040528051906020012090506000600182878787604051600081526020016040526040516101e49493929190611038565b6020604051602081039080840390855afa158015610206573d6000803e3d6000fd5b505050602060405103519050866080015173ffffffffffffffffffffffffffffffffffffffff168173ffffffffffffffffffffffffffffffffffffffff161492505050949350505050565b60008160000151905060008260a0015160008151811061029a577f4e487b7100000000000000000000000000000000000000000000000000000000600052603260045260246000fd5b602002602001015190508073ffffffffffffffffffffffffffffffffffffffff166323b872dd84608001513086602001516040518463ffffffff1660e01b81526004016102e993929190610f3c565b602060405180830381600087803b15801561030357600080fd5b505af1158015610317573d6000803e3d6000fd5b505050506040513d601f19601f8201168201806040525081019061033b9190610bba565b508073ffffffffffffffffffffffffffffffffffffffff1663095ea7b3846000015185602001516040518363ffffffff1660e01b815260040161037f929190610f73565b602060405180830381600087803b15801561039957600080fd5b505af11580156103ad573d6000803e3d6000fd5b505050506040513d601f19601f820116820180604052508101906103d19190610bba565b5061041583606001516040518060400160405280601381526020017f76335f6578616374496e70757453696e676c65000000000000000000000000008152506108d9565b1561063e5760006040518061010001604052808560a00151600081518110610466577f4e487b7100000000000000000000000000000000000000000000000000000000600052603260045260246000fd5b602002602001015173ffffffffffffffffffffffffffffffffffffffff1681526020018560a001516001815181106104c7577f4e487b7100000000000000000000000000000000000000000000000000000000600052603260045260246000fd5b602002602001015173ffffffffffffffffffffffffffffffffffffffff16815260200185610100015162ffffff168152602001856080015173ffffffffffffffffffffffffffffffffffffffff1681526020018560c00151815260200185602001518152602001856040015181526020018560e0015173ffffffffffffffffffffffffffffffffffffffff168152509050836080015173ffffffffffffffffffffffffffffffffffffffff167f770f4a11f6c24545930bbc5474a63565195e3b062566b8ba6198fd98b7cd75a860405160405180910390a260008373ffffffffffffffffffffffffffffffffffffffff1663414bf3896000846040518363ffffffff1660e01b81526004016105dc91906110bd565b6020604051808303818588803b1580156105f557600080fd5b505af1158015610609573d6000803e3d6000fd5b50505050506040513d601f19601f8201168201806040525081019061062e9190610c5e565b9050806000819055505050610802565b61068183606001516040518060400160405280601481526020017f76335f65786163744f757470757453696e676c650000000000000000000000008152506108d9565b156106c1576040517f08c379a00000000000000000000000000000000000000000000000000000000081526004016106b89061109d565b60405180910390fd5b61070483606001516040518060400160405280600d81526020017f76335f6578616374496e707574000000000000000000000000000000000000008152506108d9565b15610744576040517f08c379a000000000000000000000000000000000000000000000000000000000815260040161073b9061109d565b60405180910390fd5b61078783606001516040518060400160405280600e81526020017f76335f65786163744f75747075740000000000000000000000000000000000008152506108d9565b156107c7576040517f08c379a00000000000000000000000000000000000000000000000000000000081526004016107be9061109d565b60405180910390fd5b6040517f08c379a00000000000000000000000000000000000000000000000000000000081526004016107f99061109d565b60405180910390fd5b505050565b60006040518060e0016040528060a2815260200161146f60a291396040516020016108329190610eee565b6040516020818303038152906040528051906020012082600001518360200151846040015185606001518051906020012086608001518760a0015160405160200161087d9190610ed7565b604051602081830303815290604052805190602001208860c001518960e001518a61010001516040516020016108bc9a99989796959493929190610f9c565b604051602081830303815290604052805190602001209050919050565b6000816040516020016108ec9190610eee565b60405160208183030381529060405280519060200120836040516020016109139190610eee565b6040516020818303038152906040528051906020012014905092915050565b600061094561094084611119565b6110f4565b9050808382526020820190508285602086028201111561096457600080fd5b60005b85811015610994578161097a88826109dc565b845260208401935060208301925050600181019050610967565b5050509392505050565b60006109b16109ac84611145565b6110f4565b9050828152602081018484840111156109c957600080fd5b6109d4848285611294565b509392505050565b6000813590506109eb816113fb565b92915050565b600082601f830112610a0257600080fd5b8135610a12848260208601610932565b91505092915050565b600081519050610a2a81611412565b92915050565b600081359050610a3f81611429565b92915050565b600082601f830112610a5657600080fd5b8135610a6684826020860161099e565b91505092915050565b60006101208284031215610a8257600080fd5b610a8d6101206110f4565b90506000610a9d848285016109dc565b6000830152506020610ab184828501610b7b565b6020830152506040610ac584828501610b7b565b604083015250606082013567ffffffffffffffff811115610ae557600080fd5b610af184828501610a45565b6060830152506080610b05848285016109dc565b60808301525060a082013567ffffffffffffffff811115610b2557600080fd5b610b31848285016109f1565b60a08301525060c0610b4584828501610b7b565b60c08301525060e0610b5984828501610b7b565b60e083015250610100610b6e84828501610b7b565b6101008301525092915050565b600081359050610b8a81611440565b92915050565b600081519050610b9f81611440565b92915050565b600081359050610bb481611457565b92915050565b600060208284031215610bcc57600080fd5b6000610bda84828501610a1b565b91505092915050565b60008060008060808587031215610bf957600080fd5b600085013567ffffffffffffffff811115610c1357600080fd5b610c1f87828801610a6f565b9450506020610c3087828801610ba5565b9350506040610c4187828801610a30565b9250506060610c5287828801610a30565b91505092959194509250565b600060208284031215610c7057600080fd5b6000610c7e84828501610b90565b91505092915050565b6000610c938383610cbd565b60208301905092915050565b610ca881611226565b82525050565b610cb781611226565b82525050565b610cc681611226565b82525050565b6000610cd782611186565b610ce181856111a9565b9350610cec83611176565b8060005b83811015610d1d578151610d048882610c87565b9750610d0f8361119c565b925050600181019050610cf0565b5085935050505092915050565b610d3381611244565b82525050565b610d4a610d4582611244565b611307565b82525050565b6000610d5b82611191565b610d6581856111c5565b9350610d758185602086016112a3565b80840191505092915050565b6000610d8e6011836111b4565b9150610d9982611380565b602082019050919050565b6000610db16002836111c5565b9150610dbc826113a9565b600282019050919050565b6000610dd4600d836111b4565b9150610ddf826113d2565b602082019050919050565b61010082016000820151610e016000850182610c9f565b506020820151610e146020850182610c9f565b506040820151610e276040850182610e9b565b506060820151610e3a6060850182610c9f565b506080820151610e4d6080850182610eaa565b5060a0820151610e6060a0850182610eaa565b5060c0820151610e7360c0850182610eaa565b5060e0820151610e8660e0850182610e8c565b50505050565b610e958161124e565b82525050565b610ea48161126e565b82525050565b610eb38161127d565b82525050565b610ec28161127d565b82525050565b610ed181611287565b82525050565b6000610ee38284610ccc565b915081905092915050565b6000610efa8284610d50565b915081905092915050565b6000610f1082610da4565b9150610f1c8285610d39565b602082019150610f2c8284610d39565b6020820191508190509392505050565b6000606082019050610f516000830186610cae565b610f5e6020830185610cae565b610f6b6040830184610eb9565b949350505050565b6000604082019050610f886000830185610cae565b610f956020830184610eb9565b9392505050565b600061014082019050610fb2600083018d610d2a565b610fbf602083018c610cae565b610fcc604083018b610eb9565b610fd9606083018a610eb9565b610fe66080830189610d2a565b610ff360a0830188610cae565b61100060c0830187610d2a565b61100d60e0830186610eb9565b61101b610100830185610eb9565b611029610120830184610eb9565b9b9a5050505050505050505050565b600060808201905061104d6000830187610d2a565b61105a6020830186610ec8565b6110676040830185610d2a565b6110746060830184610d2a565b95945050505050565b6000602082019050818103600083015261109681610d81565b9050919050565b600060208201905081810360008301526110b681610dc7565b9050919050565b6000610100820190506110d36000830184610dea565b92915050565b60006020820190506110ee6000830184610eb9565b92915050565b60006110fe61110f565b905061110a82826112d6565b919050565b6000604051905090565b600067ffffffffffffffff82111561113457611133611340565b5b602082029050602081019050919050565b600067ffffffffffffffff8211156111605761115f611340565b5b6111698261136f565b9050602081019050919050565b6000819050602082019050919050565b600081519050919050565b600081519050919050565b6000602082019050919050565b600081905092915050565b600082825260208201905092915050565b600081905092915050565b60006111db8261127d565b91506111e68361127d565b9250827fffffffffffffffffffffffffffffffffffffffffffffffffffffffffffffffff0382111561121b5761121a611311565b5b828201905092915050565b60006112318261124e565b9050919050565b60008115159050919050565b6000819050919050565b600073ffffffffffffffffffffffffffffffffffffffff82169050919050565b600062ffffff82169050919050565b6000819050919050565b600060ff82169050919050565b82818337600083830152505050565b60005b838110156112c15780820151818401526020810190506112a6565b838111156112d0576000848401525b50505050565b6112df8261136f565b810181811067ffffffffffffffff821117156112fe576112fd611340565b5b80604052505050565b6000819050919050565b7f4e487b7100000000000000000000000000000000000000000000000000000000600052601160045260246000fd5b7f4e487b7100000000000000000000000000000000000000000000000000000000600052604160045260246000fd5b6000601f19601f8301169050919050565b7f696e76616c6964207369676e6174757265000000000000000000000000000000600082015250565b7f1901000000000000000000000000000000000000000000000000000000000000600082015250565b7f756e696d706c656d656e74656400000000000000000000000000000000000000600082015250565b61140481611226565b811461140f57600080fd5b50565b61141b81611238565b811461142657600080fd5b50565b61143281611244565b811461143d57600080fd5b50565b6114498161127d565b811461145457600080fd5b50565b61146081611287565b811461146b57600080fd5b5056fe537761704f72646572286164647265737320726f757465722c75696e7432353620616d6f756e74496e2c75696e7432353620616d6f756e744f75742c737472696e67207472616465547970652c6164647265737320726563697069656e742c616464726573735b5d20706174682c75696e7420646561646c696e652c75696e74323536207371727450726963654c696d69745839362c75696e743235362066656529a2646970667358221220857cd67cbc53b02b4f27314d951e708769a3d751c9cc741d983bebf97935057764736f6c63430008040033454950373132446f6d61696e28737472696e67206e616d652c737472696e672076657273696f6e2c75696e7432353620636861696e49642c6164647265737320766572696679696e67436f6e747261637429","abi":[{"inputs":[],"stateMutability":"nonpayable","type":"constructor"},{"anonymous":false,"inputs":[{"indexed":true,"internalType":"address","name":"recipient","type":"address"}],"name":"ExactInputSingleSwap","type":"event"},{"inputs":[],"name":"resetStatus","outputs":[],"stateMutability":"nonpayable","type":"function"},{"inputs":[],"name":"status","outputs":[{"internalType":"uint256","name":"","type":"uint256"}],"stateMutability":"view","type":"function"},{"inputs":[{"components":[{"internalType":"address","name":"router","type":"address"},{"internalType":"uint256","name":"amountIn","type":"uint256"},{"internalType":"uint256","name":"amountOut","type":"uint256"},{"internalType":"string","name":"tradeType","type":"string"},{"internalType":"address","name":"recipient","type":"address"},{"internalType":"address[]","name":"path","type":"address[]"},{"internalType":"uint256","name":"deadline","type":"uint256"},{"internalType":"uint256","name":"sqrtPriceLimitX96","type":"uint256"},{"internalType":"uint256","name":"fee","type":"uint256"}],"internalType":"struct SwapOrder","name":"order","type":"tuple"},{"internalType":"uint8","name":"v","type":"uint8"},{"internalType":"bytes32","name":"r","type":"bytes32"},{"internalType":"bytes32","name":"s","type":"bytes32"}],"name":"verifyAndSend","outputs":[],"stateMutability":"nonpayable","type":"function"},{"stateMutability":"payable","type":"receive"}]}